{
  "contractName": "DRepo",
  "abi": [
    {
      "inputs": [
        {
          "internalType": "address",
          "name": "",
          "type": "address"
        }
      ],
      "name": "isRegistered",
      "outputs": [
        {
          "internalType": "bool",
          "name": "",
          "type": "bool"
        }
      ],
      "stateMutability": "view",
      "type": "function",
      "constant": true
    },
    {
      "inputs": [
        {
          "internalType": "string",
          "name": "",
          "type": "string"
        }
      ],
      "name": "profileNameMap",
      "outputs": [
        {
          "internalType": "address",
          "name": "",
          "type": "address"
        }
      ],
      "stateMutability": "view",
      "type": "function",
      "constant": true
    },
    {
      "inputs": [
        {
          "internalType": "string",
          "name": "",
          "type": "string"
        },
        {
          "internalType": "uint256",
          "name": "",
          "type": "uint256"
        }
      ],
      "name": "projectCommits",
      "outputs": [
        {
          "internalType": "string",
          "name": "CommitMsg",
          "type": "string"
        },
        {
          "internalType": "string",
          "name": "ipfsCID",
          "type": "string"
        }
      ],
      "stateMutability": "view",
      "type": "function",
      "constant": true
    },
    {
      "inputs": [
        {
          "internalType": "string",
          "name": "",
          "type": "string"
        }
      ],
      "name": "projectNameToAddress",
      "outputs": [
        {
          "internalType": "address",
          "name": "",
          "type": "address"
        }
      ],
      "stateMutability": "view",
      "type": "function",
      "constant": true
    },
    {
      "inputs": [
        {
          "internalType": "address",
          "name": "",
          "type": "address"
        },
        {
          "internalType": "uint256",
          "name": "",
          "type": "uint256"
        }
      ],
      "name": "userProjects",
      "outputs": [
        {
          "internalType": "string",
          "name": "",
          "type": "string"
        }
      ],
      "stateMutability": "view",
      "type": "function",
      "constant": true
    },
    {
      "inputs": [
        {
          "internalType": "string",
          "name": "profileName",
          "type": "string"
        }
      ],
      "name": "getAddressByProfileName",
      "outputs": [
        {
          "internalType": "address",
          "name": "",
          "type": "address"
        }
      ],
      "stateMutability": "view",
      "type": "function",
      "constant": true
    },
    {
      "inputs": [
        {
          "internalType": "string",
          "name": "profileName",
          "type": "string"
        }
      ],
      "name": "registerUser",
      "outputs": [],
      "stateMutability": "nonpayable",
      "type": "function"
    },
    {
      "inputs": [],
      "name": "authenticateUser",
      "outputs": [
        {
          "internalType": "bool",
          "name": "",
          "type": "bool"
        }
      ],
      "stateMutability": "view",
      "type": "function",
      "constant": true
    },
    {
      "inputs": [
        {
          "internalType": "string",
          "name": "project_name",
          "type": "string"
        }
      ],
      "name": "CreateProject",
      "outputs": [],
      "stateMutability": "nonpayable",
      "type": "function"
    },
    {
      "inputs": [
        {
          "internalType": "string",
          "name": "profilename",
          "type": "string"
        }
      ],
      "name": "getAllRepositories",
      "outputs": [
        {
          "internalType": "string[]",
          "name": "",
          "type": "string[]"
        }
      ],
      "stateMutability": "view",
      "type": "function",
      "constant": true
    },
    {
      "inputs": [
        {
          "internalType": "string",
          "name": "project_name",
          "type": "string"
        },
        {
          "internalType": "string",
          "name": "commitMsg",
          "type": "string"
        },
        {
          "internalType": "string",
          "name": "ipfsCID",
          "type": "string"
        }
      ],
      "name": "commit",
      "outputs": [],
      "stateMutability": "nonpayable",
      "type": "function"
    },
    {
      "inputs": [
        {
          "internalType": "string",
          "name": "project_name",
          "type": "string"
        }
      ],
      "name": "getAllCommits",
      "outputs": [
        {
          "components": [
            {
              "internalType": "string",
              "name": "CommitMsg",
              "type": "string"
            },
            {
              "internalType": "string",
              "name": "ipfsCID",
              "type": "string"
            }
          ],
          "internalType": "struct DRepo.Commit[]",
          "name": "",
          "type": "tuple[]"
        }
      ],
      "stateMutability": "view",
      "type": "function",
      "constant": true
    }
  ],
  "bytecode": "0x608060405234801561001057600080fd5b50611885806100206000396000f3fe608060405234801561001057600080fd5b50600436106100b35760003560e01c806387cf6da91161007157806387cf6da9146101b25780639cf89662146101e2578063c1c57ced14610213578063c3c5a5471461022f578063de1b0eb41461025f578063fadd40661461028f576100b3565b80625ce66f146100b85780630132e822146100d657806301a33423146101065780632fa9c007146101365780633b6c4fd914610166578063704f1b9414610196575b600080fd5b6100c06102ab565b6040516100cd9190610e37565b60405180910390f35b6100f060048036038101906100eb9190610fac565b6102fe565b6040516100fd9190611183565b60405180910390f35b610120600480360381019061011b9190610fac565b61049f565b60405161012d91906111e6565b60405180910390f35b610150600480360381019061014b9190611263565b6104e8565b60405161015d91906112ed565b60405180910390f35b610180600480360381019061017b9190610fac565b6105a1565b60405161018d91906113d1565b60405180910390f35b6101b060048036038101906101ab9190610fac565b61076c565b005b6101cc60048036038101906101c79190610fac565b6108f3565b6040516101d991906111e6565b60405180910390f35b6101fc60048036038101906101f791906113f3565b61093c565b60405161020a92919061144f565b60405180910390f35b61022d60048036038101906102289190611486565b610aa3565b005b6102496004803603810190610244919061152d565b610bf4565b6040516102569190610e37565b60405180910390f35b61027960048036038101906102749190610fac565b610c14565b60405161028691906111e6565b60405180910390f35b6102a960048036038101906102a49190610fac565b610c5c565b005b60008060003373ffffffffffffffffffffffffffffffffffffffff1673ffffffffffffffffffffffffffffffffffffffff16815260200190815260200160002060009054906101000a900460ff16905090565b60606004826040516103109190611596565b9081526020016040518091039020805480602002602001604051908101604052809291908181526020016000905b828210156104945783829060005260206000209060020201604051806040016040529081600082018054610371906115dc565b80601f016020809104026020016040519081016040528092919081815260200182805461039d906115dc565b80156103ea5780601f106103bf576101008083540402835291602001916103ea565b820191906000526020600020905b8154815290600101906020018083116103cd57829003601f168201915b50505050508152602001600182018054610403906115dc565b80601f016020809104026020016040519081016040528092919081815260200182805461042f906115dc565b801561047c5780601f106104515761010080835404028352916020019161047c565b820191906000526020600020905b81548152906001019060200180831161045f57829003601f168201915b5050505050815250508152602001906001019061033e565b505050509050919050565b6001818051602081018201805184825260208301602085012081835280955050505050506000915054906101000a900473ffffffffffffffffffffffffffffffffffffffff1681565b6003602052816000526040600020818154811061050457600080fd5b90600052602060002001600091509150508054610520906115dc565b80601f016020809104026020016040519081016040528092919081815260200182805461054c906115dc565b80156105995780601f1061056e57610100808354040283529160200191610599565b820191906000526020600020905b81548152906001019060200180831161057c57829003601f168201915b505050505081565b606060006001836040516105b59190611596565b908152602001604051809103902060009054906101000a900473ffffffffffffffffffffffffffffffffffffffff169050600073ffffffffffffffffffffffffffffffffffffffff168173ffffffffffffffffffffffffffffffffffffffff1603610655576040517f08c379a000000000000000000000000000000000000000000000000000000000815260040161064c90611659565b60405180910390fd5b600360008273ffffffffffffffffffffffffffffffffffffffff1673ffffffffffffffffffffffffffffffffffffffff168152602001908152602001600020805480602002602001604051908101604052809291908181526020016000905b828210156107605783829060005260206000200180546106d3906115dc565b80601f01602080910402602001604051908101604052809291908181526020018280546106ff906115dc565b801561074c5780601f106107215761010080835404028352916020019161074c565b820191906000526020600020905b81548152906001019060200180831161072f57829003601f168201915b5050505050815260200190600101906106b4565b50505050915050919050565b6000803373ffffffffffffffffffffffffffffffffffffffff1673ffffffffffffffffffffffffffffffffffffffff16815260200190815260200160002060009054906101000a900460ff16156107f8576040517f08c379a00000000000000000000000000000000000000000000000000000000081526004016107ef906116c5565b60405180910390fd5b600081511161083c576040517f08c379a000000000000000000000000000000000000000000000000000000000815260040161083390611731565b60405180910390fd5b60016000803373ffffffffffffffffffffffffffffffffffffffff1673ffffffffffffffffffffffffffffffffffffffff16815260200190815260200160002060006101000a81548160ff021916908315150217905550336001826040516108a49190611596565b908152602001604051809103902060006101000a81548173ffffffffffffffffffffffffffffffffffffffff021916908373ffffffffffffffffffffffffffffffffffffffff16021790555050565b6002818051602081018201805184825260208301602085012081835280955050505050506000915054906101000a900473ffffffffffffffffffffffffffffffffffffffff1681565b600482805160208101820180518482526020830160208501208183528095505050505050818154811061096e57600080fd5b906000526020600020906002020160009150915050806000018054610992906115dc565b80601f01602080910402602001604051908101604052809291908181526020018280546109be906115dc565b8015610a0b5780601f106109e057610100808354040283529160200191610a0b565b820191906000526020600020905b8154815290600101906020018083116109ee57829003601f168201915b505050505090806001018054610a20906115dc565b80601f0160208091040260200160405190810160405280929190818152602001828054610a4c906115dc565b8015610a995780601f10610a6e57610100808354040283529160200191610a99565b820191906000526020600020905b815481529060010190602001808311610a7c57829003601f168201915b5050505050905082565b826000600282604051610ab69190611596565b908152602001604051809103902060009054906101000a900473ffffffffffffffffffffffffffffffffffffffff1690503373ffffffffffffffffffffffffffffffffffffffff168173ffffffffffffffffffffffffffffffffffffffff1614610b55576040517f08c379a0000000000000000000000000000000000000000000000000000000008152600401610b4c906117c3565b60405180910390fd5b600485604051610b659190611596565b908152602001604051809103902060405180604001604052808681526020018581525090806001815401808255809150506001900390600052602060002090600202016000909190919091506000820151816000019080519060200190610bcd929190610d79565b506020820151816001019080519060200190610bea929190610d79565b5050505050505050565b60006020528060005260406000206000915054906101000a900460ff1681565b6000600182604051610c269190611596565b908152602001604051809103902060009054906101000a900473ffffffffffffffffffffffffffffffffffffffff169050919050565b6000815111610ca0576040517f08c379a0000000000000000000000000000000000000000000000000000000008152600401610c979061182f565b60405180910390fd5b600360003373ffffffffffffffffffffffffffffffffffffffff1673ffffffffffffffffffffffffffffffffffffffff16815260200190815260200160002081908060018154018082558091505060019003906000526020600020016000909190919091509080519060200190610d18929190610d79565b5033600282604051610d2a9190611596565b908152602001604051809103902060006101000a81548173ffffffffffffffffffffffffffffffffffffffff021916908373ffffffffffffffffffffffffffffffffffffffff16021790555050565b828054610d85906115dc565b90600052602060002090601f016020900481019282610da75760008555610dee565b82601f10610dc057805160ff1916838001178555610dee565b82800160010185558215610dee579182015b82811115610ded578251825591602001919060010190610dd2565b5b509050610dfb9190610dff565b5090565b5b80821115610e18576000816000905550600101610e00565b5090565b60008115159050919050565b610e3181610e1c565b82525050565b6000602082019050610e4c6000830184610e28565b92915050565b6000604051905090565b600080fd5b600080fd5b600080fd5b600080fd5b6000601f19601f8301169050919050565b7f4e487b7100000000000000000000000000000000000000000000000000000000600052604160045260246000fd5b610eb982610e70565b810181811067ffffffffffffffff82111715610ed857610ed7610e81565b5b80604052505050565b6000610eeb610e52565b9050610ef78282610eb0565b919050565b600067ffffffffffffffff821115610f1757610f16610e81565b5b610f2082610e70565b9050602081019050919050565b82818337600083830152505050565b6000610f4f610f4a84610efc565b610ee1565b905082815260208101848484011115610f6b57610f6a610e6b565b5b610f76848285610f2d565b509392505050565b600082601f830112610f9357610f92610e66565b5b8135610fa3848260208601610f3c565b91505092915050565b600060208284031215610fc257610fc1610e5c565b5b600082013567ffffffffffffffff811115610fe057610fdf610e61565b5b610fec84828501610f7e565b91505092915050565b600081519050919050565b600082825260208201905092915050565b6000819050602082019050919050565b600081519050919050565b600082825260208201905092915050565b60005b8381101561105b578082015181840152602081019050611040565b8381111561106a576000848401525b50505050565b600061107b82611021565b611085818561102c565b935061109581856020860161103d565b61109e81610e70565b840191505092915050565b600060408301600083015184820360008601526110c68282611070565b915050602083015184820360208601526110e08282611070565b9150508091505092915050565b60006110f983836110a9565b905092915050565b6000602082019050919050565b600061111982610ff5565b6111238185611000565b93508360208202850161113585611011565b8060005b85811015611171578484038952815161115285826110ed565b945061115d83611101565b925060208a01995050600181019050611139565b50829750879550505050505092915050565b6000602082019050818103600083015261119d818461110e565b905092915050565b600073ffffffffffffffffffffffffffffffffffffffff82169050919050565b60006111d0826111a5565b9050919050565b6111e0816111c5565b82525050565b60006020820190506111fb60008301846111d7565b92915050565b61120a816111c5565b811461121557600080fd5b50565b60008135905061122781611201565b92915050565b6000819050919050565b6112408161122d565b811461124b57600080fd5b50565b60008135905061125d81611237565b92915050565b6000806040838503121561127a57611279610e5c565b5b600061128885828601611218565b92505060206112998582860161124e565b9150509250929050565b600082825260208201905092915050565b60006112bf82611021565b6112c981856112a3565b93506112d981856020860161103d565b6112e281610e70565b840191505092915050565b6000602082019050818103600083015261130781846112b4565b905092915050565b600081519050919050565b600082825260208201905092915050565b6000819050602082019050919050565b60006113478383611070565b905092915050565b6000602082019050919050565b60006113678261130f565b611371818561131a565b9350836020820285016113838561132b565b8060005b858110156113bf57848403895281516113a0858261133b565b94506113ab8361134f565b925060208a01995050600181019050611387565b50829750879550505050505092915050565b600060208201905081810360008301526113eb818461135c565b905092915050565b6000806040838503121561140a57611409610e5c565b5b600083013567ffffffffffffffff81111561142857611427610e61565b5b61143485828601610f7e565b92505060206114458582860161124e565b9150509250929050565b6000604082019050818103600083015261146981856112b4565b9050818103602083015261147d81846112b4565b90509392505050565b60008060006060848603121561149f5761149e610e5c565b5b600084013567ffffffffffffffff8111156114bd576114bc610e61565b5b6114c986828701610f7e565b935050602084013567ffffffffffffffff8111156114ea576114e9610e61565b5b6114f686828701610f7e565b925050604084013567ffffffffffffffff81111561151757611516610e61565b5b61152386828701610f7e565b9150509250925092565b60006020828403121561154357611542610e5c565b5b600061155184828501611218565b91505092915050565b600081905092915050565b600061157082611021565b61157a818561155a565b935061158a81856020860161103d565b80840191505092915050565b60006115a28284611565565b915081905092915050565b7f4e487b7100000000000000000000000000000000000000000000000000000000600052602260045260246000fd5b600060028204905060018216806115f457607f821691505b602082108103611607576116066115ad565b5b50919050565b7f55736572206e6f7420666f756e64000000000000000000000000000000000000600082015250565b6000611643600e836112a3565b915061164e8261160d565b602082019050919050565b6000602082019050818103600083015261167281611636565b9050919050565b7f5573657220616c72656164792072656769737465726564000000000000000000600082015250565b60006116af6017836112a3565b91506116ba82611679565b602082019050919050565b600060208201905081810360008301526116de816116a2565b9050919050565b7f50726f66696c65206e616d65206d757374206e6f7420626520656d7074790000600082015250565b600061171b601e836112a3565b9150611726826116e5565b602082019050919050565b6000602082019050818103600083015261174a8161170e565b9050919050565b7f4f6e6c79207468652070726f6a656374206f776e65722063616e20706572666f60008201527f726d207468697320616374696f6e000000000000000000000000000000000000602082015250565b60006117ad602e836112a3565b91506117b882611751565b604082019050919050565b600060208201905081810360008301526117dc816117a0565b9050919050565b7f50726f6a656374206e616d65206d757374206e6f7420626520656d7074790000600082015250565b6000611819601e836112a3565b9150611824826117e3565b602082019050919050565b600060208201905081810360008301526118488161180c565b905091905056fea26469706673582212200db39a4880577defd52b372870a7b99331dde36c3f8b34e01a152b129e2c7cd864736f6c634300080d0033",
  "immutableReferences": {},
  "source": "// SPDX-License-Identifier: MIT\n\npragma solidity >=0.7.0 <0.9.0;\n\ncontract DRepo {\n    mapping(address => bool) public isRegistered;\n    mapping(string => address) public profileNameMap;\n    mapping(string => address) public projectNameToAddress;\n\n    struct Commit {\n        string CommitMsg;\n        string ipfsCID;\n    }\n\n    function getAddressByProfileName(string memory profileName) public view returns (address) {\n        return profileNameMap[profileName];\n    }\n\n    mapping(address => string[]) public userProjects;\n    mapping(string => Commit[]) public projectCommits;\n\n    function registerUser(string memory profileName) public {\n        require(!isRegistered[msg.sender], \"User already registered\");\n        require(\n            bytes(profileName).length > 0,\n            \"Profile name must not be empty\"\n        );\n        isRegistered[msg.sender] = true;\n\n        profileNameMap[profileName] = msg.sender;\n\n        \n    }\n\n    function authenticateUser() public view returns (bool) {\n        return isRegistered[msg.sender];\n    }\n\n    function CreateProject(string memory project_name) public  {\n        require(\n            bytes(project_name).length > 0,\n            \"Project name must not be empty\"\n        );\n        userProjects[msg.sender].push(project_name);\n        projectNameToAddress[project_name] = msg.sender;\n    }\n\n    function getAllRepositories(string memory profilename)\n        public\n        view\n        returns (string[] memory)\n    {\n        address userAddress = profileNameMap[profilename];\n        require(userAddress != address(0), \"User not found\");\n        // address(0) means not a etherium address,\n        return userProjects[userAddress];\n    }\n\n    function commit(\n        string memory project_name,\n        string memory commitMsg,\n        string memory ipfsCID\n    ) public projectOwner(project_name) {\n        projectCommits[project_name].push(Commit(commitMsg, ipfsCID));\n    }\n\n    function getAllCommits(string memory project_name)\n        public\n        view\n        returns (Commit[] memory)\n    {\n        return projectCommits[project_name];\n    }\n\n    modifier projectOwner(string memory project_name) {\n        address userAddress = projectNameToAddress[project_name];\n        \n        require(\n            userAddress == msg.sender,\n            \"Only the project owner can perform this action\"\n        );\n        _;\n        \n    }\n}",
  "sourcePath": "/home/swastik/DRepo_TDoC/contracts/DRepo.sol",
  "compiler": {
    "name": "solc",
    "version": "0.8.13+commit.abaa5c0e.Emscripten.clang"
  },
  "schemaVersion": "3.4.16",
  "updatedAt": "2023-12-10T14:38:06.379Z",
  "networkType": "ethereum",
  "devdoc": {
    "kind": "dev",
    "methods": {},
    "version": 1
  },
  "userdoc": {
    "kind": "user",
    "methods": {},
    "version": 1
  }
}