{
  "contractName": "DRepo",
  "abi": [
    {
      "inputs": [
        {
          "internalType": "address",
          "name": "",
          "type": "address"
        }
      ],
      "name": "isRegistered",
      "outputs": [
        {
          "internalType": "bool",
          "name": "",
          "type": "bool"
        }
      ],
      "stateMutability": "view",
      "type": "function",
      "constant": true
    },
    {
      "inputs": [
        {
          "internalType": "string",
          "name": "",
          "type": "string"
        }
      ],
      "name": "profileNameMap",
      "outputs": [
        {
          "internalType": "address",
          "name": "",
          "type": "address"
        }
      ],
      "stateMutability": "view",
      "type": "function",
      "constant": true
    },
    {
      "inputs": [
        {
          "internalType": "address",
          "name": "",
          "type": "address"
        }
      ],
      "name": "profileNameToAddr",
      "outputs": [
        {
          "internalType": "string",
          "name": "",
          "type": "string"
        }
      ],
      "stateMutability": "view",
      "type": "function",
      "constant": true
    },
    {
      "inputs": [
        {
          "internalType": "string",
          "name": "",
          "type": "string"
        },
        {
          "internalType": "uint256",
          "name": "",
          "type": "uint256"
        }
      ],
      "name": "projectCommits",
      "outputs": [
        {
          "internalType": "string",
          "name": "CommitMsg",
          "type": "string"
        },
        {
          "internalType": "string",
          "name": "ipfsURI",
          "type": "string"
        }
      ],
      "stateMutability": "view",
      "type": "function",
      "constant": true
    },
    {
      "inputs": [
        {
          "internalType": "string",
          "name": "",
          "type": "string"
        }
      ],
      "name": "projectNameToAddress",
      "outputs": [
        {
          "internalType": "address",
          "name": "",
          "type": "address"
        }
      ],
      "stateMutability": "view",
      "type": "function",
      "constant": true
    },
    {
      "inputs": [
        {
          "internalType": "address",
          "name": "",
          "type": "address"
        },
        {
          "internalType": "uint256",
          "name": "",
          "type": "uint256"
        }
      ],
      "name": "userProjects",
      "outputs": [
        {
          "internalType": "string",
          "name": "",
          "type": "string"
        }
      ],
      "stateMutability": "view",
      "type": "function",
      "constant": true
    },
    {
      "inputs": [
        {
          "internalType": "string",
          "name": "profileName",
          "type": "string"
        }
      ],
      "name": "registerUser",
      "outputs": [],
      "stateMutability": "nonpayable",
      "type": "function"
    },
    {
      "inputs": [],
      "name": "authenticateUser",
      "outputs": [
        {
          "internalType": "bool",
          "name": "",
          "type": "bool"
        }
      ],
      "stateMutability": "view",
      "type": "function",
      "constant": true
    },
    {
      "inputs": [],
      "name": "getProfileName",
      "outputs": [
        {
          "internalType": "string",
          "name": "",
          "type": "string"
        }
      ],
      "stateMutability": "view",
      "type": "function",
      "constant": true
    },
    {
      "inputs": [
        {
          "internalType": "string",
          "name": "project_name",
          "type": "string"
        }
      ],
      "name": "CreateProject",
      "outputs": [],
      "stateMutability": "nonpayable",
      "type": "function"
    },
    {
      "inputs": [
        {
          "internalType": "string",
          "name": "profilename",
          "type": "string"
        }
      ],
      "name": "getAllRepositories",
      "outputs": [
        {
          "internalType": "string[]",
          "name": "",
          "type": "string[]"
        }
      ],
      "stateMutability": "view",
      "type": "function",
      "constant": true
    },
    {
      "inputs": [
        {
          "internalType": "string",
          "name": "project_name",
          "type": "string"
        },
        {
          "internalType": "string",
          "name": "commitMsg",
          "type": "string"
        },
        {
          "internalType": "string",
          "name": "ipfsURI",
          "type": "string"
        }
      ],
      "name": "commit",
      "outputs": [],
      "stateMutability": "nonpayable",
      "type": "function"
    },
    {
      "inputs": [
        {
          "internalType": "string",
          "name": "project_name",
          "type": "string"
        }
      ],
      "name": "getAllCommits",
      "outputs": [
        {
          "components": [
            {
              "internalType": "string",
              "name": "CommitMsg",
              "type": "string"
            },
            {
              "internalType": "string",
              "name": "ipfsURI",
              "type": "string"
            }
          ],
          "internalType": "struct DRepo.Commit[]",
          "name": "",
          "type": "tuple[]"
        }
      ],
      "stateMutability": "view",
      "type": "function",
      "constant": true
    }
  ],
  "bytecode": "0x608060405234801561001057600080fd5b50611a39806100206000396000f3fe608060405234801561001057600080fd5b50600436106100ce5760003560e01c8063704f1b941161008c5780639cf89662116100665780639cf896621461024b578063c1c57ced1461027c578063c3c5a54714610298578063fadd4066146102c8576100ce565b8063704f1b94146101cf57806387cf6da9146101eb578063960ce6751461021b576100ce565b80625ce66f146100d35780630132e822146100f157806301a33423146101215780632fa9c007146101515780633b6c4fd91461018157806361dce8b1146101b1575b600080fd5b6100db6102e4565b6040516100e89190610feb565b60405180910390f35b61010b60048036038101906101069190611160565b610337565b6040516101189190611337565b60405180910390f35b61013b60048036038101906101369190611160565b6104d8565b604051610148919061139a565b60405180910390f35b61016b60048036038101906101669190611417565b610521565b60405161017891906114a1565b60405180910390f35b61019b60048036038101906101969190611160565b6105da565b6040516101a89190611585565b60405180910390f35b6101b96107a5565b6040516101c691906114a1565b60405180910390f35b6101e960048036038101906101e49190611160565b610874565b005b61020560048036038101906102009190611160565b610a4f565b604051610212919061139a565b60405180910390f35b610235600480360381019061023091906115a7565b610a98565b60405161024291906114a1565b60405180910390f35b610265600480360381019061026091906115d4565b610b38565b604051610273929190611630565b60405180910390f35b61029660048036038101906102919190611667565b610c9f565b005b6102b260048036038101906102ad91906115a7565b610df0565b6040516102bf9190610feb565b60405180910390f35b6102e260048036038101906102dd9190611160565b610e10565b005b60008060003373ffffffffffffffffffffffffffffffffffffffff1673ffffffffffffffffffffffffffffffffffffffff16815260200190815260200160002060009054906101000a900460ff16905090565b6060600582604051610349919061174a565b9081526020016040518091039020805480602002602001604051908101604052809291908181526020016000905b828210156104cd57838290600052602060002090600202016040518060400160405290816000820180546103aa90611790565b80601f01602080910402602001604051908101604052809291908181526020018280546103d690611790565b80156104235780601f106103f857610100808354040283529160200191610423565b820191906000526020600020905b81548152906001019060200180831161040657829003601f168201915b5050505050815260200160018201805461043c90611790565b80601f016020809104026020016040519081016040528092919081815260200182805461046890611790565b80156104b55780601f1061048a576101008083540402835291602001916104b5565b820191906000526020600020905b81548152906001019060200180831161049857829003601f168201915b50505050508152505081526020019060010190610377565b505050509050919050565b6001818051602081018201805184825260208301602085012081835280955050505050506000915054906101000a900473ffffffffffffffffffffffffffffffffffffffff1681565b6004602052816000526040600020818154811061053d57600080fd5b9060005260206000200160009150915050805461055990611790565b80601f016020809104026020016040519081016040528092919081815260200182805461058590611790565b80156105d25780601f106105a7576101008083540402835291602001916105d2565b820191906000526020600020905b8154815290600101906020018083116105b557829003601f168201915b505050505081565b606060006001836040516105ee919061174a565b908152602001604051809103902060009054906101000a900473ffffffffffffffffffffffffffffffffffffffff169050600073ffffffffffffffffffffffffffffffffffffffff168173ffffffffffffffffffffffffffffffffffffffff160361068e576040517f08c379a00000000000000000000000000000000000000000000000000000000081526004016106859061180d565b60405180910390fd5b600460008273ffffffffffffffffffffffffffffffffffffffff1673ffffffffffffffffffffffffffffffffffffffff168152602001908152602001600020805480602002602001604051908101604052809291908181526020016000905b8282101561079957838290600052602060002001805461070c90611790565b80601f016020809104026020016040519081016040528092919081815260200182805461073890611790565b80156107855780601f1061075a57610100808354040283529160200191610785565b820191906000526020600020905b81548152906001019060200180831161076857829003601f168201915b5050505050815260200190600101906106ed565b50505050915050919050565b6060600360003373ffffffffffffffffffffffffffffffffffffffff1673ffffffffffffffffffffffffffffffffffffffff16815260200190815260200160002080546107f190611790565b80601f016020809104026020016040519081016040528092919081815260200182805461081d90611790565b801561086a5780601f1061083f5761010080835404028352916020019161086a565b820191906000526020600020905b81548152906001019060200180831161084d57829003601f168201915b5050505050905090565b6000803373ffffffffffffffffffffffffffffffffffffffff1673ffffffffffffffffffffffffffffffffffffffff16815260200190815260200160002060009054906101000a900460ff1615610900576040517f08c379a00000000000000000000000000000000000000000000000000000000081526004016108f790611879565b60405180910390fd5b6000815111610944576040517f08c379a000000000000000000000000000000000000000000000000000000000815260040161093b906118e5565b60405180910390fd5b60016000803373ffffffffffffffffffffffffffffffffffffffff1673ffffffffffffffffffffffffffffffffffffffff16815260200190815260200160002060006101000a81548160ff021916908315150217905550336001826040516109ac919061174a565b908152602001604051809103902060006101000a81548173ffffffffffffffffffffffffffffffffffffffff021916908373ffffffffffffffffffffffffffffffffffffffff16021790555080600360003373ffffffffffffffffffffffffffffffffffffffff1673ffffffffffffffffffffffffffffffffffffffff1681526020019081526020016000209080519060200190610a4b929190610f2d565b5050565b6002818051602081018201805184825260208301602085012081835280955050505050506000915054906101000a900473ffffffffffffffffffffffffffffffffffffffff1681565b60036020528060005260406000206000915090508054610ab790611790565b80601f0160208091040260200160405190810160405280929190818152602001828054610ae390611790565b8015610b305780601f10610b0557610100808354040283529160200191610b30565b820191906000526020600020905b815481529060010190602001808311610b1357829003601f168201915b505050505081565b6005828051602081018201805184825260208301602085012081835280955050505050508181548110610b6a57600080fd5b906000526020600020906002020160009150915050806000018054610b8e90611790565b80601f0160208091040260200160405190810160405280929190818152602001828054610bba90611790565b8015610c075780601f10610bdc57610100808354040283529160200191610c07565b820191906000526020600020905b815481529060010190602001808311610bea57829003601f168201915b505050505090806001018054610c1c90611790565b80601f0160208091040260200160405190810160405280929190818152602001828054610c4890611790565b8015610c955780601f10610c6a57610100808354040283529160200191610c95565b820191906000526020600020905b815481529060010190602001808311610c7857829003601f168201915b5050505050905082565b826000600282604051610cb2919061174a565b908152602001604051809103902060009054906101000a900473ffffffffffffffffffffffffffffffffffffffff1690503373ffffffffffffffffffffffffffffffffffffffff168173ffffffffffffffffffffffffffffffffffffffff1614610d51576040517f08c379a0000000000000000000000000000000000000000000000000000000008152600401610d4890611977565b60405180910390fd5b600585604051610d61919061174a565b908152602001604051809103902060405180604001604052808681526020018581525090806001815401808255809150506001900390600052602060002090600202016000909190919091506000820151816000019080519060200190610dc9929190610f2d565b506020820151816001019080519060200190610de6929190610f2d565b5050505050505050565b60006020528060005260406000206000915054906101000a900460ff1681565b6000815111610e54576040517f08c379a0000000000000000000000000000000000000000000000000000000008152600401610e4b906119e3565b60405180910390fd5b600460003373ffffffffffffffffffffffffffffffffffffffff1673ffffffffffffffffffffffffffffffffffffffff16815260200190815260200160002081908060018154018082558091505060019003906000526020600020016000909190919091509080519060200190610ecc929190610f2d565b5033600282604051610ede919061174a565b908152602001604051809103902060006101000a81548173ffffffffffffffffffffffffffffffffffffffff021916908373ffffffffffffffffffffffffffffffffffffffff16021790555050565b828054610f3990611790565b90600052602060002090601f016020900481019282610f5b5760008555610fa2565b82601f10610f7457805160ff1916838001178555610fa2565b82800160010185558215610fa2579182015b82811115610fa1578251825591602001919060010190610f86565b5b509050610faf9190610fb3565b5090565b5b80821115610fcc576000816000905550600101610fb4565b5090565b60008115159050919050565b610fe581610fd0565b82525050565b60006020820190506110006000830184610fdc565b92915050565b6000604051905090565b600080fd5b600080fd5b600080fd5b600080fd5b6000601f19601f8301169050919050565b7f4e487b7100000000000000000000000000000000000000000000000000000000600052604160045260246000fd5b61106d82611024565b810181811067ffffffffffffffff8211171561108c5761108b611035565b5b80604052505050565b600061109f611006565b90506110ab8282611064565b919050565b600067ffffffffffffffff8211156110cb576110ca611035565b5b6110d482611024565b9050602081019050919050565b82818337600083830152505050565b60006111036110fe846110b0565b611095565b90508281526020810184848401111561111f5761111e61101f565b5b61112a8482856110e1565b509392505050565b600082601f8301126111475761114661101a565b5b81356111578482602086016110f0565b91505092915050565b60006020828403121561117657611175611010565b5b600082013567ffffffffffffffff81111561119457611193611015565b5b6111a084828501611132565b91505092915050565b600081519050919050565b600082825260208201905092915050565b6000819050602082019050919050565b600081519050919050565b600082825260208201905092915050565b60005b8381101561120f5780820151818401526020810190506111f4565b8381111561121e576000848401525b50505050565b600061122f826111d5565b61123981856111e0565b93506112498185602086016111f1565b61125281611024565b840191505092915050565b6000604083016000830151848203600086015261127a8282611224565b915050602083015184820360208601526112948282611224565b9150508091505092915050565b60006112ad838361125d565b905092915050565b6000602082019050919050565b60006112cd826111a9565b6112d781856111b4565b9350836020820285016112e9856111c5565b8060005b85811015611325578484038952815161130685826112a1565b9450611311836112b5565b925060208a019950506001810190506112ed565b50829750879550505050505092915050565b6000602082019050818103600083015261135181846112c2565b905092915050565b600073ffffffffffffffffffffffffffffffffffffffff82169050919050565b600061138482611359565b9050919050565b61139481611379565b82525050565b60006020820190506113af600083018461138b565b92915050565b6113be81611379565b81146113c957600080fd5b50565b6000813590506113db816113b5565b92915050565b6000819050919050565b6113f4816113e1565b81146113ff57600080fd5b50565b600081359050611411816113eb565b92915050565b6000806040838503121561142e5761142d611010565b5b600061143c858286016113cc565b925050602061144d85828601611402565b9150509250929050565b600082825260208201905092915050565b6000611473826111d5565b61147d8185611457565b935061148d8185602086016111f1565b61149681611024565b840191505092915050565b600060208201905081810360008301526114bb8184611468565b905092915050565b600081519050919050565b600082825260208201905092915050565b6000819050602082019050919050565b60006114fb8383611224565b905092915050565b6000602082019050919050565b600061151b826114c3565b61152581856114ce565b935083602082028501611537856114df565b8060005b85811015611573578484038952815161155485826114ef565b945061155f83611503565b925060208a0199505060018101905061153b565b50829750879550505050505092915050565b6000602082019050818103600083015261159f8184611510565b905092915050565b6000602082840312156115bd576115bc611010565b5b60006115cb848285016113cc565b91505092915050565b600080604083850312156115eb576115ea611010565b5b600083013567ffffffffffffffff81111561160957611608611015565b5b61161585828601611132565b925050602061162685828601611402565b9150509250929050565b6000604082019050818103600083015261164a8185611468565b9050818103602083015261165e8184611468565b90509392505050565b6000806000606084860312156116805761167f611010565b5b600084013567ffffffffffffffff81111561169e5761169d611015565b5b6116aa86828701611132565b935050602084013567ffffffffffffffff8111156116cb576116ca611015565b5b6116d786828701611132565b925050604084013567ffffffffffffffff8111156116f8576116f7611015565b5b61170486828701611132565b9150509250925092565b600081905092915050565b6000611724826111d5565b61172e818561170e565b935061173e8185602086016111f1565b80840191505092915050565b60006117568284611719565b915081905092915050565b7f4e487b7100000000000000000000000000000000000000000000000000000000600052602260045260246000fd5b600060028204905060018216806117a857607f821691505b6020821081036117bb576117ba611761565b5b50919050565b7f55736572206e6f7420666f756e64000000000000000000000000000000000000600082015250565b60006117f7600e83611457565b9150611802826117c1565b602082019050919050565b60006020820190508181036000830152611826816117ea565b9050919050565b7f5573657220616c72656164792072656769737465726564000000000000000000600082015250565b6000611863601783611457565b915061186e8261182d565b602082019050919050565b6000602082019050818103600083015261189281611856565b9050919050565b7f50726f66696c65206e616d65206d757374206e6f7420626520656d7074790000600082015250565b60006118cf601e83611457565b91506118da82611899565b602082019050919050565b600060208201905081810360008301526118fe816118c2565b9050919050565b7f4f6e6c79207468652070726f6a656374206f776e65722063616e20706572666f60008201527f726d207468697320616374696f6e000000000000000000000000000000000000602082015250565b6000611961602e83611457565b915061196c82611905565b604082019050919050565b6000602082019050818103600083015261199081611954565b9050919050565b7f50726f6a656374206e616d65206d757374206e6f7420626520656d7074790000600082015250565b60006119cd601e83611457565b91506119d882611997565b602082019050919050565b600060208201905081810360008301526119fc816119c0565b905091905056fea264697066735822122071f89600e30d0e3aadeefa2d966eee34c4e144a90bad542033e48365cca3c17064736f6c634300080d0033",
  "immutableReferences": {},
  "source": "// SPDX-License-Identifier: MIT\n\npragma solidity >=0.7.0 <0.9.0;\n\ncontract DRepo {\n    mapping(address => bool) public isRegistered;\n    mapping(string => address) public profileNameMap;\n    mapping(string => address) public projectNameToAddress;\n    mapping(address => string) public profileNameToAddr;\n\n    struct Commit {\n        string CommitMsg;\n        string ipfsURI;\n    }\n\n\n    mapping(address => string[]) public userProjects;\n    mapping(string => Commit[]) public projectCommits;\n\n    function registerUser(string memory profileName) public {\n        require(!isRegistered[msg.sender], \"User already registered\");\n        require(\n            bytes(profileName).length > 0,\n            \"Profile name must not be empty\"\n        );\n        isRegistered[msg.sender] = true;\n\n        profileNameMap[profileName] = msg.sender;\n        profileNameToAddr[msg.sender] = profileName;\n        \n    }\n\n    function authenticateUser() public view returns (bool) {\n        return isRegistered[msg.sender];\n    }\n\n    function getProfileName() public view returns (string memory) {\n        return profileNameToAddr[msg.sender];\n    }\n\n    function CreateProject(string memory project_name) public  {\n        require(\n            bytes(project_name).length > 0,\n            \"Project name must not be empty\"\n        );\n        userProjects[msg.sender].push(project_name);\n        projectNameToAddress[project_name] = msg.sender;\n    }\n\n    function getAllRepositories(string memory profilename)\n        public\n        view\n        returns (string[] memory)\n    {\n        address userAddress = profileNameMap[profilename];\n        require(userAddress != address(0), \"User not found\");\n        // address(0) means not a etherium address,\n        return userProjects[userAddress];\n    }\n\n    function commit(\n        string memory project_name,\n        string memory commitMsg,\n        string memory ipfsURI\n    ) public projectOwner(project_name) {\n        projectCommits[project_name].push(Commit(commitMsg, ipfsURI));\n    }\n\n    function getAllCommits(string memory project_name)\n        public\n        view\n        returns (Commit[] memory)\n    {\n        return projectCommits[project_name];\n    }\n\n    modifier projectOwner(string memory project_name) {\n        address userAddress = projectNameToAddress[project_name];\n        \n        require(\n            userAddress == msg.sender,\n            \"Only the project owner can perform this action\"\n        );\n        _;\n        \n    }\n}",
  "sourcePath": "/home/swastik/DRepo_TDoC/contracts/DRepo.sol",
  "compiler": {
    "name": "solc",
    "version": "0.8.13+commit.abaa5c0e.Emscripten.clang"
  },
  "schemaVersion": "3.4.16",
  "updatedAt": "2023-12-13T13:26:09.035Z",
  "networkType": "ethereum",
  "devdoc": {
    "kind": "dev",
    "methods": {},
    "version": 1
  },
  "userdoc": {
    "kind": "user",
    "methods": {},
    "version": 1
  }
}