{
  "contractName": "DRepo",
  "abi": [
    {
      "inputs": [
        {
          "internalType": "address",
          "name": "",
          "type": "address"
        }
      ],
      "name": "isRegistered",
      "outputs": [
        {
          "internalType": "bool",
          "name": "",
          "type": "bool"
        }
      ],
      "stateMutability": "view",
      "type": "function",
      "constant": true
    },
    {
      "inputs": [
        {
          "internalType": "string",
          "name": "",
          "type": "string"
        }
      ],
      "name": "profileNameMap",
      "outputs": [
        {
          "internalType": "address",
          "name": "",
          "type": "address"
        }
      ],
      "stateMutability": "view",
      "type": "function",
      "constant": true
    },
    {
      "inputs": [
        {
          "internalType": "address",
          "name": "",
          "type": "address"
        }
      ],
      "name": "profileNameToAddr",
      "outputs": [
        {
          "internalType": "string",
          "name": "",
          "type": "string"
        }
      ],
      "stateMutability": "view",
      "type": "function",
      "constant": true
    },
    {
      "inputs": [
        {
          "internalType": "string",
          "name": "",
          "type": "string"
        },
        {
          "internalType": "uint256",
          "name": "",
          "type": "uint256"
        }
      ],
      "name": "projectCommits",
      "outputs": [
        {
          "internalType": "string",
          "name": "CommitMsg",
          "type": "string"
        },
        {
          "internalType": "string",
          "name": "ipfsURI",
          "type": "string"
        }
      ],
      "stateMutability": "view",
      "type": "function",
      "constant": true
    },
    {
      "inputs": [
        {
          "internalType": "string",
          "name": "",
          "type": "string"
        }
      ],
      "name": "projectNameToAddress",
      "outputs": [
        {
          "internalType": "address",
          "name": "",
          "type": "address"
        }
      ],
      "stateMutability": "view",
      "type": "function",
      "constant": true
    },
    {
      "inputs": [
        {
          "internalType": "address",
          "name": "",
          "type": "address"
        },
        {
          "internalType": "uint256",
          "name": "",
          "type": "uint256"
        }
      ],
      "name": "userProjects",
      "outputs": [
        {
          "internalType": "string",
          "name": "",
          "type": "string"
        }
      ],
      "stateMutability": "view",
      "type": "function",
      "constant": true
    },
    {
      "inputs": [
        {
          "internalType": "string",
          "name": "profileName",
          "type": "string"
        }
      ],
      "name": "registerUser",
      "outputs": [],
      "stateMutability": "nonpayable",
      "type": "function"
    },
    {
      "inputs": [],
      "name": "authenticateUser",
      "outputs": [
        {
          "internalType": "bool",
          "name": "",
          "type": "bool"
        }
      ],
      "stateMutability": "view",
      "type": "function",
      "constant": true
    },
    {
      "inputs": [
        {
          "internalType": "string",
          "name": "profileName",
          "type": "string"
        }
      ],
      "name": "isOwner",
      "outputs": [
        {
          "internalType": "bool",
          "name": "",
          "type": "bool"
        }
      ],
      "stateMutability": "view",
      "type": "function",
      "constant": true
    },
    {
      "inputs": [],
      "name": "getProfileName",
      "outputs": [
        {
          "internalType": "string",
          "name": "",
          "type": "string"
        }
      ],
      "stateMutability": "view",
      "type": "function",
      "constant": true
    },
    {
      "inputs": [
        {
          "internalType": "string",
          "name": "project_name",
          "type": "string"
        }
      ],
      "name": "CreateProject",
      "outputs": [],
      "stateMutability": "nonpayable",
      "type": "function"
    },
    {
      "inputs": [
        {
          "internalType": "string",
          "name": "profilename",
          "type": "string"
        }
      ],
      "name": "getAllRepositories",
      "outputs": [
        {
          "internalType": "string[]",
          "name": "",
          "type": "string[]"
        }
      ],
      "stateMutability": "view",
      "type": "function",
      "constant": true
    },
    {
      "inputs": [
        {
          "internalType": "string",
          "name": "project_name",
          "type": "string"
        },
        {
          "internalType": "string",
          "name": "commitMsg",
          "type": "string"
        },
        {
          "internalType": "string",
          "name": "ipfsURI",
          "type": "string"
        }
      ],
      "name": "commit",
      "outputs": [],
      "stateMutability": "nonpayable",
      "type": "function"
    },
    {
      "inputs": [
        {
          "internalType": "string",
          "name": "project_name",
          "type": "string"
        }
      ],
      "name": "getAllCommits",
      "outputs": [
        {
          "components": [
            {
              "internalType": "string",
              "name": "CommitMsg",
              "type": "string"
            },
            {
              "internalType": "string",
              "name": "ipfsURI",
              "type": "string"
            }
          ],
          "internalType": "struct DRepo.Commit[]",
          "name": "",
          "type": "tuple[]"
        }
      ],
      "stateMutability": "view",
      "type": "function",
      "constant": true
    }
  ],
  "bytecode": "0x608060405234801561001057600080fd5b50611aff806100206000396000f3fe608060405234801561001057600080fd5b50600436106100e95760003560e01c806387cf6da91161008c578063b85e943d11610066578063b85e943d14610297578063c1c57ced146102c7578063c3c5a547146102e3578063fadd406614610313576100e9565b806387cf6da914610206578063960ce675146102365780639cf8966214610266576100e9565b80632fa9c007116100c85780632fa9c0071461016c5780633b6c4fd91461019c57806361dce8b1146101cc578063704f1b94146101ea576100e9565b80625ce66f146100ee5780630132e8221461010c57806301a334231461013c575b600080fd5b6100f661032f565b60405161010391906110b1565b60405180910390f35b61012660048036038101906101219190611226565b610382565b60405161013391906113fd565b60405180910390f35b61015660048036038101906101519190611226565b610523565b6040516101639190611460565b60405180910390f35b610186600480360381019061018191906114dd565b61056c565b6040516101939190611567565b60405180910390f35b6101b660048036038101906101b19190611226565b610625565b6040516101c3919061164b565b60405180910390f35b6101d46107f0565b6040516101e19190611567565b60405180910390f35b61020460048036038101906101ff9190611226565b6108bf565b005b610220600480360381019061021b9190611226565b610a9a565b60405161022d9190611460565b60405180910390f35b610250600480360381019061024b919061166d565b610ae3565b60405161025d9190611567565b60405180910390f35b610280600480360381019061027b919061169a565b610b83565b60405161028e9291906116f6565b60405180910390f35b6102b160048036038101906102ac9190611226565b610cea565b6040516102be91906110b1565b60405180910390f35b6102e160048036038101906102dc919061172d565b610d65565b005b6102fd60048036038101906102f8919061166d565b610eb6565b60405161030a91906110b1565b60405180910390f35b61032d60048036038101906103289190611226565b610ed6565b005b60008060003373ffffffffffffffffffffffffffffffffffffffff1673ffffffffffffffffffffffffffffffffffffffff16815260200190815260200160002060009054906101000a900460ff16905090565b60606005826040516103949190611810565b9081526020016040518091039020805480602002602001604051908101604052809291908181526020016000905b8282101561051857838290600052602060002090600202016040518060400160405290816000820180546103f590611856565b80601f016020809104026020016040519081016040528092919081815260200182805461042190611856565b801561046e5780601f106104435761010080835404028352916020019161046e565b820191906000526020600020905b81548152906001019060200180831161045157829003601f168201915b5050505050815260200160018201805461048790611856565b80601f01602080910402602001604051908101604052809291908181526020018280546104b390611856565b80156105005780601f106104d557610100808354040283529160200191610500565b820191906000526020600020905b8154815290600101906020018083116104e357829003601f168201915b505050505081525050815260200190600101906103c2565b505050509050919050565b6001818051602081018201805184825260208301602085012081835280955050505050506000915054906101000a900473ffffffffffffffffffffffffffffffffffffffff1681565b6004602052816000526040600020818154811061058857600080fd5b906000526020600020016000915091505080546105a490611856565b80601f01602080910402602001604051908101604052809291908181526020018280546105d090611856565b801561061d5780601f106105f25761010080835404028352916020019161061d565b820191906000526020600020905b81548152906001019060200180831161060057829003601f168201915b505050505081565b606060006001836040516106399190611810565b908152602001604051809103902060009054906101000a900473ffffffffffffffffffffffffffffffffffffffff169050600073ffffffffffffffffffffffffffffffffffffffff168173ffffffffffffffffffffffffffffffffffffffff16036106d9576040517f08c379a00000000000000000000000000000000000000000000000000000000081526004016106d0906118d3565b60405180910390fd5b600460008273ffffffffffffffffffffffffffffffffffffffff1673ffffffffffffffffffffffffffffffffffffffff168152602001908152602001600020805480602002602001604051908101604052809291908181526020016000905b828210156107e457838290600052602060002001805461075790611856565b80601f016020809104026020016040519081016040528092919081815260200182805461078390611856565b80156107d05780601f106107a5576101008083540402835291602001916107d0565b820191906000526020600020905b8154815290600101906020018083116107b357829003601f168201915b505050505081526020019060010190610738565b50505050915050919050565b6060600360003373ffffffffffffffffffffffffffffffffffffffff1673ffffffffffffffffffffffffffffffffffffffff168152602001908152602001600020805461083c90611856565b80601f016020809104026020016040519081016040528092919081815260200182805461086890611856565b80156108b55780601f1061088a576101008083540402835291602001916108b5565b820191906000526020600020905b81548152906001019060200180831161089857829003601f168201915b5050505050905090565b6000803373ffffffffffffffffffffffffffffffffffffffff1673ffffffffffffffffffffffffffffffffffffffff16815260200190815260200160002060009054906101000a900460ff161561094b576040517f08c379a00000000000000000000000000000000000000000000000000000000081526004016109429061193f565b60405180910390fd5b600081511161098f576040517f08c379a0000000000000000000000000000000000000000000000000000000008152600401610986906119ab565b60405180910390fd5b60016000803373ffffffffffffffffffffffffffffffffffffffff1673ffffffffffffffffffffffffffffffffffffffff16815260200190815260200160002060006101000a81548160ff021916908315150217905550336001826040516109f79190611810565b908152602001604051809103902060006101000a81548173ffffffffffffffffffffffffffffffffffffffff021916908373ffffffffffffffffffffffffffffffffffffffff16021790555080600360003373ffffffffffffffffffffffffffffffffffffffff1673ffffffffffffffffffffffffffffffffffffffff1681526020019081526020016000209080519060200190610a96929190610ff3565b5050565b6002818051602081018201805184825260208301602085012081835280955050505050506000915054906101000a900473ffffffffffffffffffffffffffffffffffffffff1681565b60036020528060005260406000206000915090508054610b0290611856565b80601f0160208091040260200160405190810160405280929190818152602001828054610b2e90611856565b8015610b7b5780601f10610b5057610100808354040283529160200191610b7b565b820191906000526020600020905b815481529060010190602001808311610b5e57829003601f168201915b505050505081565b6005828051602081018201805184825260208301602085012081835280955050505050508181548110610bb557600080fd5b906000526020600020906002020160009150915050806000018054610bd990611856565b80601f0160208091040260200160405190810160405280929190818152602001828054610c0590611856565b8015610c525780601f10610c2757610100808354040283529160200191610c52565b820191906000526020600020905b815481529060010190602001808311610c3557829003601f168201915b505050505090806001018054610c6790611856565b80601f0160208091040260200160405190810160405280929190818152602001828054610c9390611856565b8015610ce05780601f10610cb557610100808354040283529160200191610ce0565b820191906000526020600020905b815481529060010190602001808311610cc357829003601f168201915b5050505050905082565b600080600183604051610cfd9190611810565b908152602001604051809103902060009054906101000a900473ffffffffffffffffffffffffffffffffffffffff1690503373ffffffffffffffffffffffffffffffffffffffff168173ffffffffffffffffffffffffffffffffffffffff1614915050919050565b826000600282604051610d789190611810565b908152602001604051809103902060009054906101000a900473ffffffffffffffffffffffffffffffffffffffff1690503373ffffffffffffffffffffffffffffffffffffffff168173ffffffffffffffffffffffffffffffffffffffff1614610e17576040517f08c379a0000000000000000000000000000000000000000000000000000000008152600401610e0e90611a3d565b60405180910390fd5b600585604051610e279190611810565b908152602001604051809103902060405180604001604052808681526020018581525090806001815401808255809150506001900390600052602060002090600202016000909190919091506000820151816000019080519060200190610e8f929190610ff3565b506020820151816001019080519060200190610eac929190610ff3565b5050505050505050565b60006020528060005260406000206000915054906101000a900460ff1681565b6000815111610f1a576040517f08c379a0000000000000000000000000000000000000000000000000000000008152600401610f1190611aa9565b60405180910390fd5b600460003373ffffffffffffffffffffffffffffffffffffffff1673ffffffffffffffffffffffffffffffffffffffff16815260200190815260200160002081908060018154018082558091505060019003906000526020600020016000909190919091509080519060200190610f92929190610ff3565b5033600282604051610fa49190611810565b908152602001604051809103902060006101000a81548173ffffffffffffffffffffffffffffffffffffffff021916908373ffffffffffffffffffffffffffffffffffffffff16021790555050565b828054610fff90611856565b90600052602060002090601f0160209004810192826110215760008555611068565b82601f1061103a57805160ff1916838001178555611068565b82800160010185558215611068579182015b8281111561106757825182559160200191906001019061104c565b5b5090506110759190611079565b5090565b5b8082111561109257600081600090555060010161107a565b5090565b60008115159050919050565b6110ab81611096565b82525050565b60006020820190506110c660008301846110a2565b92915050565b6000604051905090565b600080fd5b600080fd5b600080fd5b600080fd5b6000601f19601f8301169050919050565b7f4e487b7100000000000000000000000000000000000000000000000000000000600052604160045260246000fd5b611133826110ea565b810181811067ffffffffffffffff82111715611152576111516110fb565b5b80604052505050565b60006111656110cc565b9050611171828261112a565b919050565b600067ffffffffffffffff821115611191576111906110fb565b5b61119a826110ea565b9050602081019050919050565b82818337600083830152505050565b60006111c96111c484611176565b61115b565b9050828152602081018484840111156111e5576111e46110e5565b5b6111f08482856111a7565b509392505050565b600082601f83011261120d5761120c6110e0565b5b813561121d8482602086016111b6565b91505092915050565b60006020828403121561123c5761123b6110d6565b5b600082013567ffffffffffffffff81111561125a576112596110db565b5b611266848285016111f8565b91505092915050565b600081519050919050565b600082825260208201905092915050565b6000819050602082019050919050565b600081519050919050565b600082825260208201905092915050565b60005b838110156112d55780820151818401526020810190506112ba565b838111156112e4576000848401525b50505050565b60006112f58261129b565b6112ff81856112a6565b935061130f8185602086016112b7565b611318816110ea565b840191505092915050565b6000604083016000830151848203600086015261134082826112ea565b9150506020830151848203602086015261135a82826112ea565b9150508091505092915050565b60006113738383611323565b905092915050565b6000602082019050919050565b60006113938261126f565b61139d818561127a565b9350836020820285016113af8561128b565b8060005b858110156113eb57848403895281516113cc8582611367565b94506113d78361137b565b925060208a019950506001810190506113b3565b50829750879550505050505092915050565b600060208201905081810360008301526114178184611388565b905092915050565b600073ffffffffffffffffffffffffffffffffffffffff82169050919050565b600061144a8261141f565b9050919050565b61145a8161143f565b82525050565b60006020820190506114756000830184611451565b92915050565b6114848161143f565b811461148f57600080fd5b50565b6000813590506114a18161147b565b92915050565b6000819050919050565b6114ba816114a7565b81146114c557600080fd5b50565b6000813590506114d7816114b1565b92915050565b600080604083850312156114f4576114f36110d6565b5b600061150285828601611492565b9250506020611513858286016114c8565b9150509250929050565b600082825260208201905092915050565b60006115398261129b565b611543818561151d565b93506115538185602086016112b7565b61155c816110ea565b840191505092915050565b60006020820190508181036000830152611581818461152e565b905092915050565b600081519050919050565b600082825260208201905092915050565b6000819050602082019050919050565b60006115c183836112ea565b905092915050565b6000602082019050919050565b60006115e182611589565b6115eb8185611594565b9350836020820285016115fd856115a5565b8060005b85811015611639578484038952815161161a85826115b5565b9450611625836115c9565b925060208a01995050600181019050611601565b50829750879550505050505092915050565b6000602082019050818103600083015261166581846115d6565b905092915050565b600060208284031215611683576116826110d6565b5b600061169184828501611492565b91505092915050565b600080604083850312156116b1576116b06110d6565b5b600083013567ffffffffffffffff8111156116cf576116ce6110db565b5b6116db858286016111f8565b92505060206116ec858286016114c8565b9150509250929050565b60006040820190508181036000830152611710818561152e565b90508181036020830152611724818461152e565b90509392505050565b600080600060608486031215611746576117456110d6565b5b600084013567ffffffffffffffff811115611764576117636110db565b5b611770868287016111f8565b935050602084013567ffffffffffffffff811115611791576117906110db565b5b61179d868287016111f8565b925050604084013567ffffffffffffffff8111156117be576117bd6110db565b5b6117ca868287016111f8565b9150509250925092565b600081905092915050565b60006117ea8261129b565b6117f481856117d4565b93506118048185602086016112b7565b80840191505092915050565b600061181c82846117df565b915081905092915050565b7f4e487b7100000000000000000000000000000000000000000000000000000000600052602260045260246000fd5b6000600282049050600182168061186e57607f821691505b60208210810361188157611880611827565b5b50919050565b7f55736572206e6f7420666f756e64000000000000000000000000000000000000600082015250565b60006118bd600e8361151d565b91506118c882611887565b602082019050919050565b600060208201905081810360008301526118ec816118b0565b9050919050565b7f5573657220616c72656164792072656769737465726564000000000000000000600082015250565b600061192960178361151d565b9150611934826118f3565b602082019050919050565b600060208201905081810360008301526119588161191c565b9050919050565b7f50726f66696c65206e616d65206d757374206e6f7420626520656d7074790000600082015250565b6000611995601e8361151d565b91506119a08261195f565b602082019050919050565b600060208201905081810360008301526119c481611988565b9050919050565b7f4f6e6c79207468652070726f6a656374206f776e65722063616e20706572666f60008201527f726d207468697320616374696f6e000000000000000000000000000000000000602082015250565b6000611a27602e8361151d565b9150611a32826119cb565b604082019050919050565b60006020820190508181036000830152611a5681611a1a565b9050919050565b7f50726f6a656374206e616d65206d757374206e6f7420626520656d7074790000600082015250565b6000611a93601e8361151d565b9150611a9e82611a5d565b602082019050919050565b60006020820190508181036000830152611ac281611a86565b905091905056fea2646970667358221220efa89bb5ba43cc286f0960dcb07ae1cac00f76702cec994dce02720cfd9605e564736f6c634300080d0033",
  "immutableReferences": {},
  "source": "// SPDX-License-Identifier: MIT\n\npragma solidity >=0.7.0 <0.9.0;\n\ncontract DRepo {\n    mapping(address => bool) public isRegistered;\n    mapping(string => address) public profileNameMap;\n    mapping(string => address) public projectNameToAddress;\n    mapping(address => string) public profileNameToAddr;\n\n    struct Commit {\n        string CommitMsg;\n        string ipfsURI;\n    }\n\n\n    mapping(address => string[]) public userProjects;\n    mapping(string => Commit[]) public projectCommits;\n\n    function registerUser(string memory profileName) public {\n        require(!isRegistered[msg.sender], \"User already registered\");\n        require(\n            bytes(profileName).length > 0,\n            \"Profile name must not be empty\"\n        );\n        isRegistered[msg.sender] = true;\n\n        profileNameMap[profileName] = msg.sender;\n        profileNameToAddr[msg.sender] = profileName;\n        \n    }\n\n    function authenticateUser() public view returns (bool) {\n        return isRegistered[msg.sender];\n        \n    }\n\n    function isOwner(string memory profileName) public view returns (bool) {\n        address userAddress = profileNameMap[profileName];\n        return userAddress == msg.sender;\n    }\n\n\n    function getProfileName() public view returns (string memory) {\n        return profileNameToAddr[msg.sender];\n    }\n\n    function CreateProject(string memory project_name) public  {\n        require(\n            bytes(project_name).length > 0,\n            \"Project name must not be empty\"\n        );\n        userProjects[msg.sender].push(project_name);\n        projectNameToAddress[project_name] = msg.sender;\n    }\n\n    function getAllRepositories(string memory profilename)\n        public\n        view\n        returns (string[] memory)\n    {\n        address userAddress = profileNameMap[profilename];\n        require(userAddress != address(0), \"User not found\");\n        // address(0) means not a etherium address,\n        return userProjects[userAddress];\n    }\n\n    function commit(\n        string memory project_name,\n        string memory commitMsg,\n        string memory ipfsURI\n    ) public projectOwner(project_name) {\n        projectCommits[project_name].push(Commit(commitMsg, ipfsURI));\n    }\n\n    function getAllCommits(string memory project_name)\n        public\n        view\n        returns (Commit[] memory)\n    {\n        return projectCommits[project_name];\n    }\n\n    modifier projectOwner(string memory project_name) {\n        address userAddress = projectNameToAddress[project_name];\n        \n        require(\n            userAddress == msg.sender,\n            \"Only the project owner can perform this action\"\n        );\n        _;\n        \n    }\n}",
  "sourcePath": "/home/swastik/DRepo_TDoC/contracts/DRepo.sol",
  "compiler": {
    "name": "solc",
    "version": "0.8.13+commit.abaa5c0e.Emscripten.clang"
  },
  "schemaVersion": "3.4.16",
  "updatedAt": "2023-12-15T05:04:36.291Z",
  "networkType": "ethereum",
  "devdoc": {
    "kind": "dev",
    "methods": {},
    "version": 1
  },
  "userdoc": {
    "kind": "user",
    "methods": {},
    "version": 1
  }
}